{"contracts/InterestRateModel.sol":{"InterestRateModel":{"abi":[{"inputs":[{"internalType":"uint256","name":"_baseRate","type":"uint256"},{"internalType":"uint256","name":"_slope1","type":"uint256"},{"internalType":"uint256","name":"_slope2","type":"uint256"},{"internalType":"uint256","name":"_optimalUtilization","type":"uint256"}],"stateMutability":"nonpayable","type":"constructor"},{"inputs":[],"name":"SCALE","outputs":[{"internalType":"uint256","name":"","type":"uint256"}],"stateMutability":"view","type":"function"},{"inputs":[],"name":"baseRate","outputs":[{"internalType":"uint256","name":"","type":"uint256"}],"stateMutability":"view","type":"function"},{"inputs":[{"internalType":"uint256","name":"totalDeposits","type":"uint256"},{"internalType":"uint256","name":"totalBorrows","type":"uint256"}],"name":"getBorrowRate","outputs":[{"internalType":"uint256","name":"","type":"uint256"}],"stateMutability":"view","type":"function"},{"inputs":[{"internalType":"uint256","name":"totalDeposits","type":"uint256"},{"internalType":"uint256","name":"totalBorrows","type":"uint256"},{"internalType":"uint256","name":"reserveFactor","type":"uint256"}],"name":"getSupplyRate","outputs":[{"internalType":"uint256","name":"","type":"uint256"}],"stateMutability":"view","type":"function"},{"inputs":[],"name":"optimalUtilization","outputs":[{"internalType":"uint256","name":"","type":"uint256"}],"stateMutability":"view","type":"function"},{"inputs":[],"name":"slope1","outputs":[{"internalType":"uint256","name":"","type":"uint256"}],"stateMutability":"view","type":"function"},{"inputs":[],"name":"slope2","outputs":[{"internalType":"uint256","name":"","type":"uint256"}],"stateMutability":"view","type":"function"}],"evm":{"bytecode":{"linkReferences":{},"object":"608060405234801561001057600080fd5b5060405161046f38038061046f83398101604081905261002f91610046565b60009390935560019190915560025560035561007c565b6000806000806080858703121561005c57600080fd5b505082516020840151604085015160609095015191969095509092509050565b6103e48061008b6000396000f3fe608060405234801561001057600080fd5b506004361061007d5760003560e01c8063a5cdfa941161005b578063a5cdfa94146100b9578063a62b75a8146100cc578063d0134cb7146100d5578063eced5526146100de57600080fd5b80631f68f20a146100825780634a3196471461009d5780636290cd1c146100b0575b600080fd5b61008b60005481565b60405190815260200160405180910390f35b61008b6100ab3660046102d2565b6100ed565b61008b60035481565b61008b6100c73660046102fe565b6101e2565b61008b60015481565b61008b60025481565b61008b670de0b6b3a764000081565b6000836000036100ff575060006101db565b600084610114670de0b6b3a764000086610336565b61011e919061034d565b6040516329737ea560e21b81526004810187905260248101869052909150600090309063a5cdfa9490604401602060405180830381865afa158015610167573d6000803e3d6000fd5b505050506040513d601f19601f8201168201806040525081019061018b919061036f565b90506000670de0b6b3a76400006101a28682610388565b6101ac9084610336565b6101b6919061034d565b9050670de0b6b3a76400006101cb8483610336565b6101d5919061034d565b93505050505b9392505050565b6000826000036101f557506000546102cc565b60008361020a670de0b6b3a764000085610336565b610214919061034d565b9050600354811161025557670de0b6b3a7640000600154826102369190610336565b610240919061034d565b60005461024d919061039b565b9150506102cc565b6000670de0b6b3a76400006001546003546102709190610336565b61027a919061034d565b600054610287919061039b565b90506000600354836102999190610388565b9050670de0b6b3a7640000600254826102b29190610336565b6102bc919061034d565b6102c6908361039b565b93505050505b92915050565b6000806000606084860312156102e757600080fd5b505081359360208301359350604090920135919050565b6000806040838503121561031157600080fd5b50508035926020909101359150565b634e487b7160e01b600052601160045260246000fd5b80820281158282048414176102cc576102cc610320565b60008261036a57634e487b7160e01b600052601260045260246000fd5b500490565b60006020828403121561038157600080fd5b5051919050565b818103818111156102cc576102cc610320565b808201808211156102cc576102cc61032056fea264697066735822122025ef95f0cce87a44ee682be1504993b7265506c2c55a7d545683177cbf388d9364736f6c63430008140033","opcodes":"PUSH1 0x80 PUSH1 0x40 MSTORE CALLVALUE DUP1 ISZERO PUSH2 0x10 JUMPI PUSH1 0x0 DUP1 REVERT JUMPDEST POP PUSH1 0x40 MLOAD PUSH2 0x46F CODESIZE SUB DUP1 PUSH2 0x46F DUP4 CODECOPY DUP2 ADD PUSH1 0x40 DUP2 SWAP1 MSTORE PUSH2 0x2F SWAP2 PUSH2 0x46 JUMP JUMPDEST PUSH1 0x0 SWAP4 SWAP1 SWAP4 SSTORE PUSH1 0x1 SWAP2 SWAP1 SWAP2 SSTORE PUSH1 0x2 SSTORE PUSH1 0x3 SSTORE PUSH2 0x7C JUMP JUMPDEST PUSH1 0x0 DUP1 PUSH1 0x0 DUP1 PUSH1 0x80 DUP6 DUP8 SUB SLT ISZERO PUSH2 0x5C JUMPI PUSH1 0x0 DUP1 REVERT JUMPDEST POP POP DUP3 MLOAD PUSH1 0x20 DUP5 ADD MLOAD PUSH1 0x40 DUP6 ADD MLOAD PUSH1 0x60 SWAP1 SWAP6 ADD MLOAD SWAP2 SWAP7 SWAP1 SWAP6 POP SWAP1 SWAP3 POP SWAP1 POP JUMP JUMPDEST PUSH2 0x3E4 DUP1 PUSH2 0x8B PUSH1 0x0 CODECOPY PUSH1 0x0 RETURN INVALID PUSH1 0x80 PUSH1 0x40 MSTORE CALLVALUE DUP1 ISZERO PUSH2 0x10 JUMPI PUSH1 0x0 DUP1 REVERT JUMPDEST POP PUSH1 0x4 CALLDATASIZE LT PUSH2 0x7D JUMPI PUSH1 0x0 CALLDATALOAD PUSH1 0xE0 SHR DUP1 PUSH4 0xA5CDFA94 GT PUSH2 0x5B JUMPI DUP1 PUSH4 0xA5CDFA94 EQ PUSH2 0xB9 JUMPI DUP1 PUSH4 0xA62B75A8 EQ PUSH2 0xCC JUMPI DUP1 PUSH4 0xD0134CB7 EQ PUSH2 0xD5 JUMPI DUP1 PUSH4 0xECED5526 EQ PUSH2 0xDE JUMPI PUSH1 0x0 DUP1 REVERT JUMPDEST DUP1 PUSH4 0x1F68F20A EQ PUSH2 0x82 JUMPI DUP1 PUSH4 0x4A319647 EQ PUSH2 0x9D JUMPI DUP1 PUSH4 0x6290CD1C EQ PUSH2 0xB0 JUMPI JUMPDEST PUSH1 0x0 DUP1 REVERT JUMPDEST PUSH2 0x8B PUSH1 0x0 SLOAD DUP2 JUMP JUMPDEST PUSH1 0x40 MLOAD SWAP1 DUP2 MSTORE PUSH1 0x20 ADD PUSH1 0x40 MLOAD DUP1 SWAP2 SUB SWAP1 RETURN JUMPDEST PUSH2 0x8B PUSH2 0xAB CALLDATASIZE PUSH1 0x4 PUSH2 0x2D2 JUMP JUMPDEST PUSH2 0xED JUMP JUMPDEST PUSH2 0x8B PUSH1 0x3 SLOAD DUP2 JUMP JUMPDEST PUSH2 0x8B PUSH2 0xC7 CALLDATASIZE PUSH1 0x4 PUSH2 0x2FE JUMP JUMPDEST PUSH2 0x1E2 JUMP JUMPDEST PUSH2 0x8B PUSH1 0x1 SLOAD DUP2 JUMP JUMPDEST PUSH2 0x8B PUSH1 0x2 SLOAD DUP2 JUMP JUMPDEST PUSH2 0x8B PUSH8 0xDE0B6B3A7640000 DUP2 JUMP JUMPDEST PUSH1 0x0 DUP4 PUSH1 0x0 SUB PUSH2 0xFF JUMPI POP PUSH1 0x0 PUSH2 0x1DB JUMP JUMPDEST PUSH1 0x0 DUP5 PUSH2 0x114 PUSH8 0xDE0B6B3A7640000 DUP7 PUSH2 0x336 JUMP JUMPDEST PUSH2 0x11E SWAP2 SWAP1 PUSH2 0x34D JUMP JUMPDEST PUSH1 0x40 MLOAD PUSH4 0x29737EA5 PUSH1 0xE2 SHL DUP2 MSTORE PUSH1 0x4 DUP2 ADD DUP8 SWAP1 MSTORE PUSH1 0x24 DUP2 ADD DUP7 SWAP1 MSTORE SWAP1 SWAP2 POP PUSH1 0x0 SWAP1 ADDRESS SWAP1 PUSH4 0xA5CDFA94 SWAP1 PUSH1 0x44 ADD PUSH1 0x20 PUSH1 0x40 MLOAD DUP1 DUP4 SUB DUP2 DUP7 GAS STATICCALL ISZERO DUP1 ISZERO PUSH2 0x167 JUMPI RETURNDATASIZE PUSH1 0x0 DUP1 RETURNDATACOPY RETURNDATASIZE PUSH1 0x0 REVERT JUMPDEST POP POP POP POP PUSH1 0x40 MLOAD RETURNDATASIZE PUSH1 0x1F NOT PUSH1 0x1F DUP3 ADD AND DUP3 ADD DUP1 PUSH1 0x40 MSTORE POP DUP2 ADD SWAP1 PUSH2 0x18B SWAP2 SWAP1 PUSH2 0x36F JUMP JUMPDEST SWAP1 POP PUSH1 0x0 PUSH8 0xDE0B6B3A7640000 PUSH2 0x1A2 DUP7 DUP3 PUSH2 0x388 JUMP JUMPDEST PUSH2 0x1AC SWAP1 DUP5 PUSH2 0x336 JUMP JUMPDEST PUSH2 0x1B6 SWAP2 SWAP1 PUSH2 0x34D JUMP JUMPDEST SWAP1 POP PUSH8 0xDE0B6B3A7640000 PUSH2 0x1CB DUP5 DUP4 PUSH2 0x336 JUMP JUMPDEST PUSH2 0x1D5 SWAP2 SWAP1 PUSH2 0x34D JUMP JUMPDEST SWAP4 POP POP POP POP JUMPDEST SWAP4 SWAP3 POP POP POP JUMP JUMPDEST PUSH1 0x0 DUP3 PUSH1 0x0 SUB PUSH2 0x1F5 JUMPI POP PUSH1 0x0 SLOAD PUSH2 0x2CC JUMP JUMPDEST PUSH1 0x0 DUP4 PUSH2 0x20A PUSH8 0xDE0B6B3A7640000 DUP6 PUSH2 0x336 JUMP JUMPDEST PUSH2 0x214 SWAP2 SWAP1 PUSH2 0x34D JUMP JUMPDEST SWAP1 POP PUSH1 0x3 SLOAD DUP2 GT PUSH2 0x255 JUMPI PUSH8 0xDE0B6B3A7640000 PUSH1 0x1 SLOAD DUP3 PUSH2 0x236 SWAP2 SWAP1 PUSH2 0x336 JUMP JUMPDEST PUSH2 0x240 SWAP2 SWAP1 PUSH2 0x34D JUMP JUMPDEST PUSH1 0x0 SLOAD PUSH2 0x24D SWAP2 SWAP1 PUSH2 0x39B JUMP JUMPDEST SWAP2 POP POP PUSH2 0x2CC JUMP JUMPDEST PUSH1 0x0 PUSH8 0xDE0B6B3A7640000 PUSH1 0x1 SLOAD PUSH1 0x3 SLOAD PUSH2 0x270 SWAP2 SWAP1 PUSH2 0x336 JUMP JUMPDEST PUSH2 0x27A SWAP2 SWAP1 PUSH2 0x34D JUMP JUMPDEST PUSH1 0x0 SLOAD PUSH2 0x287 SWAP2 SWAP1 PUSH2 0x39B JUMP JUMPDEST SWAP1 POP PUSH1 0x0 PUSH1 0x3 SLOAD DUP4 PUSH2 0x299 SWAP2 SWAP1 PUSH2 0x388 JUMP JUMPDEST SWAP1 POP PUSH8 0xDE0B6B3A7640000 PUSH1 0x2 SLOAD DUP3 PUSH2 0x2B2 SWAP2 SWAP1 PUSH2 0x336 JUMP JUMPDEST PUSH2 0x2BC SWAP2 SWAP1 PUSH2 0x34D JUMP JUMPDEST PUSH2 0x2C6 SWAP1 DUP4 PUSH2 0x39B JUMP JUMPDEST SWAP4 POP POP POP POP JUMPDEST SWAP3 SWAP2 POP POP JUMP JUMPDEST PUSH1 0x0 DUP1 PUSH1 0x0 PUSH1 0x60 DUP5 DUP7 SUB SLT ISZERO PUSH2 0x2E7 JUMPI PUSH1 0x0 DUP1 REVERT JUMPDEST POP POP DUP2 CALLDATALOAD SWAP4 PUSH1 0x20 DUP4 ADD CALLDATALOAD SWAP4 POP PUSH1 0x40 SWAP1 SWAP3 ADD CALLDATALOAD SWAP2 SWAP1 POP JUMP JUMPDEST PUSH1 0x0 DUP1 PUSH1 0x40 DUP4 DUP6 SUB SLT ISZERO PUSH2 0x311 JUMPI PUSH1 0x0 DUP1 REVERT JUMPDEST POP POP DUP1 CALLDATALOAD SWAP3 PUSH1 0x20 SWAP1 SWAP2 ADD CALLDATALOAD SWAP2 POP JUMP JUMPDEST PUSH4 0x4E487B71 PUSH1 0xE0 SHL PUSH1 0x0 MSTORE PUSH1 0x11 PUSH1 0x4 MSTORE PUSH1 0x24 PUSH1 0x0 REVERT JUMPDEST DUP1 DUP3 MUL DUP2 ISZERO DUP3 DUP3 DIV DUP5 EQ OR PUSH2 0x2CC JUMPI PUSH2 0x2CC PUSH2 0x320 JUMP JUMPDEST PUSH1 0x0 DUP3 PUSH2 0x36A JUMPI PUSH4 0x4E487B71 PUSH1 0xE0 SHL PUSH1 0x0 MSTORE PUSH1 0x12 PUSH1 0x4 MSTORE PUSH1 0x24 PUSH1 0x0 REVERT JUMPDEST POP DIV SWAP1 JUMP JUMPDEST PUSH1 0x0 PUSH1 0x20 DUP3 DUP5 SUB SLT ISZERO PUSH2 0x381 JUMPI PUSH1 0x0 DUP1 REVERT JUMPDEST POP MLOAD SWAP2 SWAP1 POP JUMP JUMPDEST DUP2 DUP2 SUB DUP2 DUP2 GT ISZERO PUSH2 0x2CC JUMPI PUSH2 0x2CC PUSH2 0x320 JUMP JUMPDEST DUP1 DUP3 ADD DUP1 DUP3 GT ISZERO PUSH2 0x2CC JUMPI PUSH2 0x2CC PUSH2 0x320 JUMP INVALID LOG2 PUSH5 0x6970667358 0x22 SLT KECCAK256 0x25 0xEF SWAP6 CREATE 0xCC 0xE8 PUSH27 0x44EE682BE1504993B7265506C2C55A7D545683177CBF388D936473 PUSH16 0x6C634300081400330000000000000000 "},"methodIdentifiers":{"SCALE()":"eced5526","baseRate()":"1f68f20a","getBorrowRate(uint256,uint256)":"a5cdfa94","getSupplyRate(uint256,uint256,uint256)":"4a319647","optimalUtilization()":"6290cd1c","slope1()":"a62b75a8","slope2()":"d0134cb7"}}}}}