{
  "_format": "hh-sol-artifact-1",
  "contractName": "MockFlashLoanReceiver",
  "sourceName": "contracts/mocks/MockFlashLoanReceiver.sol",
  "abi": [
    {
      "inputs": [
        {
          "internalType": "address",
          "name": "_pool",
          "type": "address"
        }
      ],
      "stateMutability": "nonpayable",
      "type": "constructor"
    },
    {
      "inputs": [
        {
          "internalType": "address",
          "name": "token",
          "type": "address"
        },
        {
          "internalType": "uint256",
          "name": "amount",
          "type": "uint256"
        },
        {
          "internalType": "uint256",
          "name": "fee",
          "type": "uint256"
        },
        {
          "internalType": "bytes",
          "name": "",
          "type": "bytes"
        }
      ],
      "name": "executeOperation",
      "outputs": [
        {
          "internalType": "bool",
          "name": "",
          "type": "bool"
        }
      ],
      "stateMutability": "nonpayable",
      "type": "function"
    },
    {
      "inputs": [],
      "name": "pool",
      "outputs": [
        {
          "internalType": "address",
          "name": "",
          "type": "address"
        }
      ],
      "stateMutability": "view",
      "type": "function"
    }
  ],
  "bytecode": "0x608060405234801561001057600080fd5b5060405161037638038061037683398101604081905261002f91610054565b600080546001600160a01b0319166001600160a01b0392909216919091179055610084565b60006020828403121561006657600080fd5b81516001600160a01b038116811461007d57600080fd5b9392505050565b6102e3806100936000396000f3fe608060405234801561001057600080fd5b50600436106100365760003560e01c806316f0115b1461003b578063ee8725581461006b575b600080fd5b60005461004e906001600160a01b031681565b6040516001600160a01b0390911681526020015b60405180910390f35b61007e6100793660046101bb565b61008e565b6040519015158152602001610062565b600080546001600160a01b038088169163095ea7b391166100af878961025d565b6040516001600160e01b031960e085901b1681526001600160a01b03909216600483015260248201526044016020604051808303816000875af11580156100fa573d6000803e3d6000fd5b505050506040513d601f19601f8201168201806040525081019061011e9190610284565b506000546001600160a01b038088169163a9059cbb911661013f878961025d565b6040516001600160e01b031960e085901b1681526001600160a01b03909216600483015260248201526044016020604051808303816000875af115801561018a573d6000803e3d6000fd5b505050506040513d601f19601f820116820180604052508101906101ae9190610284565b5060019695505050505050565b6000806000806000608086880312156101d357600080fd5b85356001600160a01b03811681146101ea57600080fd5b94506020860135935060408601359250606086013567ffffffffffffffff8082111561021557600080fd5b818801915088601f83011261022957600080fd5b81358181111561023857600080fd5b89602082850101111561024a57600080fd5b9699959850939650602001949392505050565b8082018082111561027e57634e487b7160e01b600052601160045260246000fd5b92915050565b60006020828403121561029657600080fd5b815180151581146102a657600080fd5b939250505056fea2646970667358221220db4c0e651adf32115bdcc466f5f1e25a584e40bc4c0770996709166d13a134db64736f6c63430008140033",
  "linkReferences": {},
  "deployedLinkReferences": {}
}