{
  "_format": "hh-sol-artifact-1",
  "contractName": "InterestRateModel",
  "sourceName": "contracts/InterestRateModel.sol",
  "abi": [
    {
      "inputs": [
        {
          "internalType": "uint256",
          "name": "_baseRate",
          "type": "uint256"
        },
        {
          "internalType": "uint256",
          "name": "_slope1",
          "type": "uint256"
        },
        {
          "internalType": "uint256",
          "name": "_slope2",
          "type": "uint256"
        },
        {
          "internalType": "uint256",
          "name": "_optimalUtilization",
          "type": "uint256"
        }
      ],
      "stateMutability": "nonpayable",
      "type": "constructor"
    },
    {
      "inputs": [],
      "name": "SCALE",
      "outputs": [
        {
          "internalType": "uint256",
          "name": "",
          "type": "uint256"
        }
      ],
      "stateMutability": "view",
      "type": "function"
    },
    {
      "inputs": [],
      "name": "baseRate",
      "outputs": [
        {
          "internalType": "uint256",
          "name": "",
          "type": "uint256"
        }
      ],
      "stateMutability": "view",
      "type": "function"
    },
    {
      "inputs": [
        {
          "internalType": "uint256",
          "name": "totalDeposits",
          "type": "uint256"
        },
        {
          "internalType": "uint256",
          "name": "totalBorrows",
          "type": "uint256"
        }
      ],
      "name": "getBorrowRate",
      "outputs": [
        {
          "internalType": "uint256",
          "name": "",
          "type": "uint256"
        }
      ],
      "stateMutability": "view",
      "type": "function"
    },
    {
      "inputs": [
        {
          "internalType": "uint256",
          "name": "totalDeposits",
          "type": "uint256"
        },
        {
          "internalType": "uint256",
          "name": "totalBorrows",
          "type": "uint256"
        },
        {
          "internalType": "uint256",
          "name": "reserveFactor",
          "type": "uint256"
        }
      ],
      "name": "getSupplyRate",
      "outputs": [
        {
          "internalType": "uint256",
          "name": "",
          "type": "uint256"
        }
      ],
      "stateMutability": "view",
      "type": "function"
    },
    {
      "inputs": [],
      "name": "optimalUtilization",
      "outputs": [
        {
          "internalType": "uint256",
          "name": "",
          "type": "uint256"
        }
      ],
      "stateMutability": "view",
      "type": "function"
    },
    {
      "inputs": [],
      "name": "slope1",
      "outputs": [
        {
          "internalType": "uint256",
          "name": "",
          "type": "uint256"
        }
      ],
      "stateMutability": "view",
      "type": "function"
    },
    {
      "inputs": [],
      "name": "slope2",
      "outputs": [
        {
          "internalType": "uint256",
          "name": "",
          "type": "uint256"
        }
      ],
      "stateMutability": "view",
      "type": "function"
    }
  ],
  "bytecode": "0x608060405234801561001057600080fd5b5060405161046f38038061046f83398101604081905261002f91610046565b60009390935560019190915560025560035561007c565b6000806000806080858703121561005c57600080fd5b505082516020840151604085015160609095015191969095509092509050565b6103e48061008b6000396000f3fe608060405234801561001057600080fd5b506004361061007d5760003560e01c8063a5cdfa941161005b578063a5cdfa94146100b9578063a62b75a8146100cc578063d0134cb7146100d5578063eced5526146100de57600080fd5b80631f68f20a146100825780634a3196471461009d5780636290cd1c146100b0575b600080fd5b61008b60005481565b60405190815260200160405180910390f35b61008b6100ab3660046102d2565b6100ed565b61008b60035481565b61008b6100c73660046102fe565b6101e2565b61008b60015481565b61008b60025481565b61008b670de0b6b3a764000081565b6000836000036100ff575060006101db565b600084610114670de0b6b3a764000086610336565b61011e919061034d565b6040516329737ea560e21b81526004810187905260248101869052909150600090309063a5cdfa9490604401602060405180830381865afa158015610167573d6000803e3d6000fd5b505050506040513d601f19601f8201168201806040525081019061018b919061036f565b90506000670de0b6b3a76400006101a28682610388565b6101ac9084610336565b6101b6919061034d565b9050670de0b6b3a76400006101cb8483610336565b6101d5919061034d565b93505050505b9392505050565b6000826000036101f557506000546102cc565b60008361020a670de0b6b3a764000085610336565b610214919061034d565b9050600354811161025557670de0b6b3a7640000600154826102369190610336565b610240919061034d565b60005461024d919061039b565b9150506102cc565b6000670de0b6b3a76400006001546003546102709190610336565b61027a919061034d565b600054610287919061039b565b90506000600354836102999190610388565b9050670de0b6b3a7640000600254826102b29190610336565b6102bc919061034d565b6102c6908361039b565b93505050505b92915050565b6000806000606084860312156102e757600080fd5b505081359360208301359350604090920135919050565b6000806040838503121561031157600080fd5b50508035926020909101359150565b634e487b7160e01b600052601160045260246000fd5b80820281158282048414176102cc576102cc610320565b60008261036a57634e487b7160e01b600052601260045260246000fd5b500490565b60006020828403121561038157600080fd5b5051919050565b818103818111156102cc576102cc610320565b808201808211156102cc576102cc61032056fea264697066735822122025ef95f0cce87a44ee682be1504993b7265506c2c55a7d545683177cbf388d9364736f6c63430008140033",
  "linkReferences": {},
  "deployedLinkReferences": {}
}