{
  "_format": "hh-sol-artifact-1",
  "contractName": "PolkaToken",
  "sourceName": "contracts/PolkaToken.sol",
  "abi": [
    {
      "inputs": [],
      "stateMutability": "nonpayable",
      "type": "constructor"
    },
    {
      "inputs": [
        {
          "internalType": "address",
          "name": "spender",
          "type": "address"
        },
        {
          "internalType": "uint256",
          "name": "allowance",
          "type": "uint256"
        },
        {
          "internalType": "uint256",
          "name": "needed",
          "type": "uint256"
        }
      ],
      "name": "ERC20InsufficientAllowance",
      "type": "error"
    },
    {
      "inputs": [
        {
          "internalType": "address",
          "name": "sender",
          "type": "address"
        },
        {
          "internalType": "uint256",
          "name": "balance",
          "type": "uint256"
        },
        {
          "internalType": "uint256",
          "name": "needed",
          "type": "uint256"
        }
      ],
      "name": "ERC20InsufficientBalance",
      "type": "error"
    },
    {
      "inputs": [
        {
          "internalType": "address",
          "name": "approver",
          "type": "address"
        }
      ],
      "name": "ERC20InvalidApprover",
      "type": "error"
    },
    {
      "inputs": [
        {
          "internalType": "address",
          "name": "receiver",
          "type": "address"
        }
      ],
      "name": "ERC20InvalidReceiver",
      "type": "error"
    },
    {
      "inputs": [
        {
          "internalType": "address",
          "name": "sender",
          "type": "address"
        }
      ],
      "name": "ERC20InvalidSender",
      "type": "error"
    },
    {
      "inputs": [
        {
          "internalType": "address",
          "name": "spender",
          "type": "address"
        }
      ],
      "name": "ERC20InvalidSpender",
      "type": "error"
    },
    {
      "inputs": [
        {
          "internalType": "address",
          "name": "owner",
          "type": "address"
        }
      ],
      "name": "OwnableInvalidOwner",
      "type": "error"
    },
    {
      "inputs": [
        {
          "internalType": "address",
          "name": "account",
          "type": "address"
        }
      ],
      "name": "OwnableUnauthorizedAccount",
      "type": "error"
    },
    {
      "anonymous": false,
      "inputs": [
        {
          "indexed": true,
          "internalType": "address",
          "name": "owner",
          "type": "address"
        },
        {
          "indexed": true,
          "internalType": "address",
          "name": "spender",
          "type": "address"
        },
        {
          "indexed": false,
          "internalType": "uint256",
          "name": "value",
          "type": "uint256"
        }
      ],
      "name": "Approval",
      "type": "event"
    },
    {
      "anonymous": false,
      "inputs": [
        {
          "indexed": true,
          "internalType": "address",
          "name": "previousOwner",
          "type": "address"
        },
        {
          "indexed": true,
          "internalType": "address",
          "name": "newOwner",
          "type": "address"
        }
      ],
      "name": "OwnershipTransferred",
      "type": "event"
    },
    {
      "anonymous": false,
      "inputs": [
        {
          "indexed": true,
          "internalType": "address",
          "name": "from",
          "type": "address"
        },
        {
          "indexed": true,
          "internalType": "address",
          "name": "to",
          "type": "address"
        },
        {
          "indexed": false,
          "internalType": "uint256",
          "name": "value",
          "type": "uint256"
        }
      ],
      "name": "Transfer",
      "type": "event"
    },
    {
      "inputs": [],
      "name": "MAX_SUPPLY",
      "outputs": [
        {
          "internalType": "uint256",
          "name": "",
          "type": "uint256"
        }
      ],
      "stateMutability": "view",
      "type": "function"
    },
    {
      "inputs": [
        {
          "internalType": "address",
          "name": "owner",
          "type": "address"
        },
        {
          "internalType": "address",
          "name": "spender",
          "type": "address"
        }
      ],
      "name": "allowance",
      "outputs": [
        {
          "internalType": "uint256",
          "name": "",
          "type": "uint256"
        }
      ],
      "stateMutability": "view",
      "type": "function"
    },
    {
      "inputs": [
        {
          "internalType": "address",
          "name": "spender",
          "type": "address"
        },
        {
          "internalType": "uint256",
          "name": "value",
          "type": "uint256"
        }
      ],
      "name": "approve",
      "outputs": [
        {
          "internalType": "bool",
          "name": "",
          "type": "bool"
        }
      ],
      "stateMutability": "nonpayable",
      "type": "function"
    },
    {
      "inputs": [
        {
          "internalType": "address",
          "name": "account",
          "type": "address"
        }
      ],
      "name": "balanceOf",
      "outputs": [
        {
          "internalType": "uint256",
          "name": "",
          "type": "uint256"
        }
      ],
      "stateMutability": "view",
      "type": "function"
    },
    {
      "inputs": [],
      "name": "decimals",
      "outputs": [
        {
          "internalType": "uint8",
          "name": "",
          "type": "uint8"
        }
      ],
      "stateMutability": "view",
      "type": "function"
    },
    {
      "inputs": [
        {
          "internalType": "address",
          "name": "to",
          "type": "address"
        },
        {
          "internalType": "uint256",
          "name": "amount",
          "type": "uint256"
        }
      ],
      "name": "mint",
      "outputs": [],
      "stateMutability": "nonpayable",
      "type": "function"
    },
    {
      "inputs": [],
      "name": "name",
      "outputs": [
        {
          "internalType": "string",
          "name": "",
          "type": "string"
        }
      ],
      "stateMutability": "view",
      "type": "function"
    },
    {
      "inputs": [],
      "name": "owner",
      "outputs": [
        {
          "internalType": "address",
          "name": "",
          "type": "address"
        }
      ],
      "stateMutability": "view",
      "type": "function"
    },
    {
      "inputs": [],
      "name": "renounceOwnership",
      "outputs": [],
      "stateMutability": "nonpayable",
      "type": "function"
    },
    {
      "inputs": [],
      "name": "symbol",
      "outputs": [
        {
          "internalType": "string",
          "name": "",
          "type": "string"
        }
      ],
      "stateMutability": "view",
      "type": "function"
    },
    {
      "inputs": [],
      "name": "totalSupply",
      "outputs": [
        {
          "internalType": "uint256",
          "name": "",
          "type": "uint256"
        }
      ],
      "stateMutability": "view",
      "type": "function"
    },
    {
      "inputs": [
        {
          "internalType": "address",
          "name": "to",
          "type": "address"
        },
        {
          "internalType": "uint256",
          "name": "value",
          "type": "uint256"
        }
      ],
      "name": "transfer",
      "outputs": [
        {
          "internalType": "bool",
          "name": "",
          "type": "bool"
        }
      ],
      "stateMutability": "nonpayable",
      "type": "function"
    },
    {
      "inputs": [
        {
          "internalType": "address",
          "name": "from",
          "type": "address"
        },
        {
          "internalType": "address",
          "name": "to",
          "type": "address"
        },
        {
          "internalType": "uint256",
          "name": "value",
          "type": "uint256"
        }
      ],
      "name": "transferFrom",
      "outputs": [
        {
          "internalType": "bool",
          "name": "",
          "type": "bool"
        }
      ],
      "stateMutability": "nonpayable",
      "type": "function"
    },
    {
      "inputs": [
        {
          "internalType": "address",
          "name": "newOwner",
          "type": "address"
        }
      ],
      "name": "transferOwnership",
      "outputs": [],
      "stateMutability": "nonpayable",
      "type": "function"
    }
  ],
  "bytecode": "0x60806040523480156200001157600080fd5b50336040518060400160405280600f81526020016e2837b635b0a632b732102a37b5b2b760891b81525060405180604001604052806005815260200164141311539160da1b81525081600390816200006a91906200033d565b5060046200007982826200033d565b5050506001600160a01b038116620000ac57604051631e4fbdf760e01b8152600060048201526024015b60405180910390fd5b620000b781620000d5565b50620000cf336a084595161401484a00000062000127565b62000431565b600580546001600160a01b038381166001600160a01b0319831681179093556040519116919082907f8be0079c531659141344cd1fd0a4f28419497f9722a3daafe3b4186f6b6457e090600090a35050565b6001600160a01b038216620001535760405163ec442f0560e01b815260006004820152602401620000a3565b620001616000838362000165565b5050565b6001600160a01b0383166200019457806002600082825462000188919062000409565b90915550620002089050565b6001600160a01b03831660009081526020819052604090205481811015620001e95760405163391434e360e21b81526001600160a01b03851660048201526024810182905260448101839052606401620000a3565b6001600160a01b03841660009081526020819052604090209082900390555b6001600160a01b038216620002265760028054829003905562000245565b6001600160a01b03821660009081526020819052604090208054820190555b816001600160a01b0316836001600160a01b03167fddf252ad1be2c89b69c2b068fc378daa952ba7f163c4a11628f55a4df523b3ef836040516200028b91815260200190565b60405180910390a3505050565b634e487b7160e01b600052604160045260246000fd5b600181811c90821680620002c357607f821691505b602082108103620002e457634e487b7160e01b600052602260045260246000fd5b50919050565b601f8211156200033857600081815260208120601f850160051c81016020861015620003135750805b601f850160051c820191505b8181101562000334578281556001016200031f565b5050505b505050565b81516001600160401b0381111562000359576200035962000298565b62000371816200036a8454620002ae565b84620002ea565b602080601f831160018114620003a95760008415620003905750858301515b600019600386901b1c1916600185901b17855562000334565b600085815260208120601f198616915b82811015620003da57888601518255948401946001909101908401620003b9565b5085821015620003f95787850151600019600388901b60f8161c191681555b5050505050600190811b01905550565b808201808211156200042b57634e487b7160e01b600052601160045260246000fd5b92915050565b61096080620004416000396000f3fe608060405234801561001057600080fd5b50600436106100ea5760003560e01c806370a082311161008c57806395d89b411161006657806395d89b41146101d7578063a9059cbb146101df578063dd62ed3e146101f2578063f2fde38b1461022b57600080fd5b806370a082311461018b578063715018a6146101b45780638da5cb5b146101bc57600080fd5b806323b872dd116100c857806323b872dd14610142578063313ce5671461015557806332cb6b0c1461016457806340c10f191461017657600080fd5b806306fdde03146100ef578063095ea7b31461010d57806318160ddd14610130575b600080fd5b6100f761023e565b60405161010491906107aa565b60405180910390f35b61012061011b366004610814565b6102d0565b6040519015158152602001610104565b6002545b604051908152602001610104565b61012061015036600461083e565b6102ea565b60405160128152602001610104565b6101346a52b7d2dcc80cd2e400000081565b610189610184366004610814565b61030e565b005b61013461019936600461087a565b6001600160a01b031660009081526020819052604090205490565b610189610397565b6005546040516001600160a01b039091168152602001610104565b6100f76103ab565b6101206101ed366004610814565b6103ba565b61013461020036600461089c565b6001600160a01b03918216600090815260016020908152604080832093909416825291909152205490565b61018961023936600461087a565b6103c8565b60606003805461024d906108cf565b80601f0160208091040260200160405190810160405280929190818152602001828054610279906108cf565b80156102c65780601f1061029b576101008083540402835291602001916102c6565b820191906000526020600020905b8154815290600101906020018083116102a957829003601f168201915b5050505050905090565b6000336102de818585610406565b60019150505b92915050565b6000336102f8858285610418565b610303858585610497565b506001949350505050565b6103166104f6565b6a52b7d2dcc80cd2e40000008161032c60025490565b6103369190610909565b11156103895760405162461bcd60e51b815260206004820152601860248201527f506f6c6b61546f6b656e3a20636170206578636565646564000000000000000060448201526064015b60405180910390fd5b6103938282610523565b5050565b61039f6104f6565b6103a96000610559565b565b60606004805461024d906108cf565b6000336102de818585610497565b6103d06104f6565b6001600160a01b0381166103fa57604051631e4fbdf760e01b815260006004820152602401610380565b61040381610559565b50565b61041383838360016105ab565b505050565b6001600160a01b03838116600090815260016020908152604080832093861683529290522054600019811015610491578181101561048257604051637dc7a0d960e11b81526001600160a01b03841660048201526024810182905260448101839052606401610380565b610491848484840360006105ab565b50505050565b6001600160a01b0383166104c157604051634b637e8f60e11b815260006004820152602401610380565b6001600160a01b0382166104eb5760405163ec442f0560e01b815260006004820152602401610380565b610413838383610680565b6005546001600160a01b031633146103a95760405163118cdaa760e01b8152336004820152602401610380565b6001600160a01b03821661054d5760405163ec442f0560e01b815260006004820152602401610380565b61039360008383610680565b600580546001600160a01b038381166001600160a01b0319831681179093556040519116919082907f8be0079c531659141344cd1fd0a4f28419497f9722a3daafe3b4186f6b6457e090600090a35050565b6001600160a01b0384166105d55760405163e602df0560e01b815260006004820152602401610380565b6001600160a01b0383166105ff57604051634a1406b160e11b815260006004820152602401610380565b6001600160a01b038085166000908152600160209081526040808320938716835292905220829055801561049157826001600160a01b0316846001600160a01b03167f8c5be1e5ebec7d5bd14f71427d1e84f3dd0314c0f7b2291e5b200ac8c7c3b9258460405161067291815260200190565b60405180910390a350505050565b6001600160a01b0383166106ab5780600260008282546106a09190610909565b9091555061071d9050565b6001600160a01b038316600090815260208190526040902054818110156106fe5760405163391434e360e21b81526001600160a01b03851660048201526024810182905260448101839052606401610380565b6001600160a01b03841660009081526020819052604090209082900390555b6001600160a01b03821661073957600280548290039055610758565b6001600160a01b03821660009081526020819052604090208054820190555b816001600160a01b0316836001600160a01b03167fddf252ad1be2c89b69c2b068fc378daa952ba7f163c4a11628f55a4df523b3ef8360405161079d91815260200190565b60405180910390a3505050565b600060208083528351808285015260005b818110156107d7578581018301518582016040015282016107bb565b506000604082860101526040601f19601f8301168501019250505092915050565b80356001600160a01b038116811461080f57600080fd5b919050565b6000806040838503121561082757600080fd5b610830836107f8565b946020939093013593505050565b60008060006060848603121561085357600080fd5b61085c846107f8565b925061086a602085016107f8565b9150604084013590509250925092565b60006020828403121561088c57600080fd5b610895826107f8565b9392505050565b600080604083850312156108af57600080fd5b6108b8836107f8565b91506108c6602084016107f8565b90509250929050565b600181811c908216806108e357607f821691505b60208210810361090357634e487b7160e01b600052602260045260246000fd5b50919050565b808201808211156102e457634e487b7160e01b600052601160045260246000fdfea26469706673582212208c7f243096025e65e59334e562452027e02385b6ae38cbdc581aef02a73e620f64736f6c63430008140033",
  "linkReferences": {},
  "deployedLinkReferences": {}
}