{
  "_format": "hh-sol-artifact-1",
  "contractName": "LendingPool",
  "sourceName": "contracts/LendingPool.sol",
  "abi": [
    {
      "inputs": [
        {
          "internalType": "address",
          "name": "_interestRateModel",
          "type": "address"
        },
        {
          "internalType": "address",
          "name": "_oracle",
          "type": "address"
        }
      ],
      "stateMutability": "nonpayable",
      "type": "constructor"
    },
    {
      "inputs": [
        {
          "internalType": "address",
          "name": "owner",
          "type": "address"
        }
      ],
      "name": "OwnableInvalidOwner",
      "type": "error"
    },
    {
      "inputs": [
        {
          "internalType": "address",
          "name": "account",
          "type": "address"
        }
      ],
      "name": "OwnableUnauthorizedAccount",
      "type": "error"
    },
    {
      "inputs": [],
      "name": "ReentrancyGuardReentrantCall",
      "type": "error"
    },
    {
      "inputs": [
        {
          "internalType": "address",
          "name": "token",
          "type": "address"
        }
      ],
      "name": "SafeERC20FailedOperation",
      "type": "error"
    },
    {
      "anonymous": false,
      "inputs": [
        {
          "indexed": true,
          "internalType": "address",
          "name": "user",
          "type": "address"
        },
        {
          "indexed": true,
          "internalType": "address",
          "name": "token",
          "type": "address"
        },
        {
          "indexed": false,
          "internalType": "uint256",
          "name": "amount",
          "type": "uint256"
        }
      ],
      "name": "Borrow",
      "type": "event"
    },
    {
      "anonymous": false,
      "inputs": [
        {
          "indexed": true,
          "internalType": "address",
          "name": "user",
          "type": "address"
        },
        {
          "indexed": true,
          "internalType": "address",
          "name": "token",
          "type": "address"
        },
        {
          "indexed": false,
          "internalType": "uint256",
          "name": "amount",
          "type": "uint256"
        }
      ],
      "name": "Deposit",
      "type": "event"
    },
    {
      "anonymous": false,
      "inputs": [
        {
          "indexed": true,
          "internalType": "address",
          "name": "receiver",
          "type": "address"
        },
        {
          "indexed": true,
          "internalType": "address",
          "name": "token",
          "type": "address"
        },
        {
          "indexed": false,
          "internalType": "uint256",
          "name": "amount",
          "type": "uint256"
        },
        {
          "indexed": false,
          "internalType": "uint256",
          "name": "fee",
          "type": "uint256"
        }
      ],
      "name": "FlashLoan",
      "type": "event"
    },
    {
      "anonymous": false,
      "inputs": [
        {
          "indexed": true,
          "internalType": "address",
          "name": "receiver",
          "type": "address"
        },
        {
          "indexed": true,
          "internalType": "address",
          "name": "token",
          "type": "address"
        },
        {
          "indexed": false,
          "internalType": "uint256",
          "name": "amount",
          "type": "uint256"
        },
        {
          "indexed": false,
          "internalType": "uint256",
          "name": "fee",
          "type": "uint256"
        }
      ],
      "name": "FlashLoanExecuted",
      "type": "event"
    },
    {
      "anonymous": false,
      "inputs": [
        {
          "indexed": true,
          "internalType": "address",
          "name": "liquidator",
          "type": "address"
        },
        {
          "indexed": true,
          "internalType": "address",
          "name": "borrower",
          "type": "address"
        },
        {
          "indexed": true,
          "internalType": "address",
          "name": "collateralToken",
          "type": "address"
        },
        {
          "indexed": false,
          "internalType": "uint256",
          "name": "debtRepaid",
          "type": "uint256"
        },
        {
          "indexed": false,
          "internalType": "uint256",
          "name": "collateralSeized",
          "type": "uint256"
        }
      ],
      "name": "Liquidate",
      "type": "event"
    },
    {
      "anonymous": false,
      "inputs": [
        {
          "indexed": true,
          "internalType": "address",
          "name": "previousOwner",
          "type": "address"
        },
        {
          "indexed": true,
          "internalType": "address",
          "name": "newOwner",
          "type": "address"
        }
      ],
      "name": "OwnershipTransferred",
      "type": "event"
    },
    {
      "anonymous": false,
      "inputs": [
        {
          "indexed": true,
          "internalType": "address",
          "name": "user",
          "type": "address"
        },
        {
          "indexed": true,
          "internalType": "address",
          "name": "token",
          "type": "address"
        },
        {
          "indexed": false,
          "internalType": "uint256",
          "name": "amount",
          "type": "uint256"
        }
      ],
      "name": "Repay",
      "type": "event"
    },
    {
      "anonymous": false,
      "inputs": [
        {
          "indexed": true,
          "internalType": "address",
          "name": "user",
          "type": "address"
        },
        {
          "indexed": true,
          "internalType": "address",
          "name": "token",
          "type": "address"
        },
        {
          "indexed": false,
          "internalType": "uint256",
          "name": "amount",
          "type": "uint256"
        }
      ],
      "name": "Withdraw",
      "type": "event"
    },
    {
      "inputs": [],
      "name": "FLASH_LOAN_FEE_BPS",
      "outputs": [
        {
          "internalType": "uint256",
          "name": "",
          "type": "uint256"
        }
      ],
      "stateMutability": "view",
      "type": "function"
    },
    {
      "inputs": [],
      "name": "LIQUIDATION_BONUS",
      "outputs": [
        {
          "internalType": "uint256",
          "name": "",
          "type": "uint256"
        }
      ],
      "stateMutability": "view",
      "type": "function"
    },
    {
      "inputs": [
        {
          "internalType": "address",
          "name": "token",
          "type": "address"
        },
        {
          "internalType": "uint256",
          "name": "collateralFactor",
          "type": "uint256"
        },
        {
          "internalType": "uint256",
          "name": "reserveFactor",
          "type": "uint256"
        }
      ],
      "name": "addMarket",
      "outputs": [],
      "stateMutability": "nonpayable",
      "type": "function"
    },
    {
      "inputs": [
        {
          "internalType": "address",
          "name": "token",
          "type": "address"
        },
        {
          "internalType": "uint256",
          "name": "amount",
          "type": "uint256"
        }
      ],
      "name": "borrow",
      "outputs": [],
      "stateMutability": "nonpayable",
      "type": "function"
    },
    {
      "inputs": [
        {
          "internalType": "address",
          "name": "token",
          "type": "address"
        },
        {
          "internalType": "uint256",
          "name": "amount",
          "type": "uint256"
        }
      ],
      "name": "deposit",
      "outputs": [],
      "stateMutability": "nonpayable",
      "type": "function"
    },
    {
      "inputs": [
        {
          "internalType": "address",
          "name": "receiver",
          "type": "address"
        },
        {
          "internalType": "address",
          "name": "token",
          "type": "address"
        },
        {
          "internalType": "uint256",
          "name": "amount",
          "type": "uint256"
        },
        {
          "internalType": "bytes",
          "name": "data",
          "type": "bytes"
        }
      ],
      "name": "flashLoan",
      "outputs": [],
      "stateMutability": "nonpayable",
      "type": "function"
    },
    {
      "inputs": [
        {
          "internalType": "address",
          "name": "user",
          "type": "address"
        }
      ],
      "name": "getBorrowValue",
      "outputs": [
        {
          "internalType": "uint256",
          "name": "total",
          "type": "uint256"
        }
      ],
      "stateMutability": "view",
      "type": "function"
    },
    {
      "inputs": [
        {
          "internalType": "address",
          "name": "user",
          "type": "address"
        }
      ],
      "name": "getCollateralValue",
      "outputs": [
        {
          "internalType": "uint256",
          "name": "total",
          "type": "uint256"
        }
      ],
      "stateMutability": "view",
      "type": "function"
    },
    {
      "inputs": [],
      "name": "getListedTokens",
      "outputs": [
        {
          "internalType": "address[]",
          "name": "",
          "type": "address[]"
        }
      ],
      "stateMutability": "view",
      "type": "function"
    },
    {
      "inputs": [],
      "name": "interestRateModel",
      "outputs": [
        {
          "internalType": "contract InterestRateModel",
          "name": "",
          "type": "address"
        }
      ],
      "stateMutability": "view",
      "type": "function"
    },
    {
      "inputs": [
        {
          "internalType": "address",
          "name": "user",
          "type": "address"
        }
      ],
      "name": "isHealthy",
      "outputs": [
        {
          "internalType": "bool",
          "name": "",
          "type": "bool"
        }
      ],
      "stateMutability": "view",
      "type": "function"
    },
    {
      "inputs": [
        {
          "internalType": "address",
          "name": "borrower",
          "type": "address"
        },
        {
          "internalType": "address",
          "name": "debtToken",
          "type": "address"
        },
        {
          "internalType": "address",
          "name": "collateralToken",
          "type": "address"
        },
        {
          "internalType": "uint256",
          "name": "repayAmount",
          "type": "uint256"
        }
      ],
      "name": "liquidate",
      "outputs": [],
      "stateMutability": "nonpayable",
      "type": "function"
    },
    {
      "inputs": [
        {
          "internalType": "uint256",
          "name": "",
          "type": "uint256"
        }
      ],
      "name": "listedTokens",
      "outputs": [
        {
          "internalType": "address",
          "name": "",
          "type": "address"
        }
      ],
      "stateMutability": "view",
      "type": "function"
    },
    {
      "inputs": [
        {
          "internalType": "address",
          "name": "",
          "type": "address"
        }
      ],
      "name": "markets",
      "outputs": [
        {
          "internalType": "bool",
          "name": "isListed",
          "type": "bool"
        },
        {
          "internalType": "uint256",
          "name": "collateralFactor",
          "type": "uint256"
        },
        {
          "internalType": "uint256",
          "name": "totalDeposits",
          "type": "uint256"
        },
        {
          "internalType": "uint256",
          "name": "totalBorrows",
          "type": "uint256"
        },
        {
          "internalType": "uint256",
          "name": "reserveFactor",
          "type": "uint256"
        }
      ],
      "stateMutability": "view",
      "type": "function"
    },
    {
      "inputs": [],
      "name": "oracle",
      "outputs": [
        {
          "internalType": "contract PriceOracle",
          "name": "",
          "type": "address"
        }
      ],
      "stateMutability": "view",
      "type": "function"
    },
    {
      "inputs": [],
      "name": "owner",
      "outputs": [
        {
          "internalType": "address",
          "name": "",
          "type": "address"
        }
      ],
      "stateMutability": "view",
      "type": "function"
    },
    {
      "inputs": [],
      "name": "renounceOwnership",
      "outputs": [],
      "stateMutability": "nonpayable",
      "type": "function"
    },
    {
      "inputs": [
        {
          "internalType": "address",
          "name": "token",
          "type": "address"
        },
        {
          "internalType": "uint256",
          "name": "amount",
          "type": "uint256"
        }
      ],
      "name": "repay",
      "outputs": [],
      "stateMutability": "nonpayable",
      "type": "function"
    },
    {
      "inputs": [
        {
          "internalType": "address",
          "name": "newOwner",
          "type": "address"
        }
      ],
      "name": "transferOwnership",
      "outputs": [],
      "stateMutability": "nonpayable",
      "type": "function"
    },
    {
      "inputs": [
        {
          "internalType": "address",
          "name": "",
          "type": "address"
        },
        {
          "internalType": "address",
          "name": "",
          "type": "address"
        }
      ],
      "name": "userBorrows",
      "outputs": [
        {
          "internalType": "uint256",
          "name": "",
          "type": "uint256"
        }
      ],
      "stateMutability": "view",
      "type": "function"
    },
    {
      "inputs": [
        {
          "internalType": "address",
          "name": "",
          "type": "address"
        },
        {
          "internalType": "address",
          "name": "",
          "type": "address"
        }
      ],
      "name": "userDeposits",
      "outputs": [
        {
          "internalType": "uint256",
          "name": "",
          "type": "uint256"
        }
      ],
      "stateMutability": "view",
      "type": "function"
    },
    {
      "inputs": [
        {
          "internalType": "address",
          "name": "token",
          "type": "address"
        },
        {
          "internalType": "uint256",
          "name": "amount",
          "type": "uint256"
        }
      ],
      "name": "withdraw",
      "outputs": [],
      "stateMutability": "nonpayable",
      "type": "function"
    }
  ],
  "bytecode": "0x60806040523480156200001157600080fd5b5060405162001e1038038062001e1083398101604081905262000034916200012a565b33806200005b57604051631e4fbdf760e01b81526000600482015260240160405180910390fd5b6200006681620000bd565b5060017f9b779b17422d0df92223018b32b4d1fa46e071723d6817e2486d003becc55f0055600180546001600160a01b039384166001600160a01b0319918216179091556002805492909316911617905562000162565b600080546001600160a01b038381166001600160a01b0319831681178455604051919092169283917f8be0079c531659141344cd1fd0a4f28419497f9722a3daafe3b4186f6b6457e09190a35050565b80516001600160a01b03811681146200012557600080fd5b919050565b600080604083850312156200013e57600080fd5b62000149836200010d565b915062000159602084016200010d565b90509250929050565b611c9e80620001726000396000f3fe608060405234801561001057600080fd5b50600436106101425760003560e01c80637dc0d1d0116100b8578063c0ffb8091161007c578063c0ffb80914610313578063d4d9bc6814610326578063e13dd9a414610349578063f2fde38b1461035c578063f3fdb15a1461036f578063f3fef3a31461038257600080fd5b80637dc0d1d01461025d5780638da5cb5b146102705780638e8f294b1461028157806397904e42146102ed578063aab3f8681461030057600080fd5b8063436d80391161010a578063436d8039146101c657806347e7ef24146101f15780634b8a3529146102045780635a9d1ac3146102175780635cffe9de14610242578063715018a61461025557600080fd5b806322867d7814610147578063234a14f91461015c5780632ba996a51461019a5780633574d4c4146101af5780633fed1dac146101be575b600080fd5b61015a6101553660046118ca565b610395565b005b61018761016a3660046118f4565b600560209081526000928352604080842090915290825290205481565b6040519081526020015b60405180910390f35b6101a26104fb565b6040516101919190611927565b610187670e92596fd629000081565b610187600981565b6101876101d43660046118f4565b600460209081526000928352604080842090915290825290205481565b61015a6101ff3660046118ca565b61055d565b61015a6102123660046118ca565b61067f565b61022a610225366004611974565b610839565b6040516001600160a01b039091168152602001610191565b61015a61025036600461198d565b610863565b61015a61092e565b60025461022a906001600160a01b031681565b6000546001600160a01b031661022a565b6102c361028f366004611a28565b60036020819052600091825260409091208054600182015460028301549383015460049093015460ff909216939092909185565b6040805195151586526020860194909452928401919091526060830152608082015260a001610191565b6101876102fb366004611a28565b610942565b61015a61030e366004611a4a565b610a8f565b61015a610321366004611a95565b610ecd565b610339610334366004611a28565b611080565b6040519015158152602001610191565b610187610357366004611a28565b611091565b61015a61036a366004611a28565b6111a1565b60015461022a906001600160a01b031681565b61015a6103903660046118ca565b6111df565b61039d6113a9565b6001600160a01b0382166000908152600360205260409020805460ff166103df5760405162461bcd60e51b81526004016103d690611ac8565b60405180910390fd5b600082116103ff5760405162461bcd60e51b81526004016103d690611af2565b3360009081526005602090815260408083206001600160a01b0387168452909152812054908184116104315783610433565b815b905061044a6001600160a01b0386163330846113c5565b3360009081526005602090815260408083206001600160a01b03891684529091528120805483929061047d908490611b33565b92505081905550808360030160008282546104989190611b33565b90915550506040518181526001600160a01b0386169033907f05f2eeda0e08e4b437f487c8d7d29b14537d15e3488170dc3de5dbdf8dac46849060200160405180910390a35050506104f76001600080516020611c4983398151915255565b5050565b6060600680548060200260200160405190810160405280929190818152602001828054801561055357602002820191906000526020600020905b81546001600160a01b03168152600190910190602001808311610535575b5050505050905090565b6105656113a9565b6001600160a01b0382166000908152600360205260409020805460ff1661059e5760405162461bcd60e51b81526004016103d690611ac8565b600082116105be5760405162461bcd60e51b81526004016103d690611af2565b6105d36001600160a01b0384163330856113c5565b3360009081526004602090815260408083206001600160a01b038716845290915281208054849290610606908490611b46565b92505081905550818160020160008282546106219190611b46565b90915550506040518281526001600160a01b0384169033907f5548c837ab068cf56a2c2479df0882a4922fd203edb7517321831d95078c5f62906020015b60405180910390a3506104f76001600080516020611c4983398151915255565b6106876113a9565b6001600160a01b0382166000908152600360205260409020805460ff166106c05760405162461bcd60e51b81526004016103d690611ac8565b600082116106e05760405162461bcd60e51b81526004016103d690611af2565b81816003015482600201546106f59190611b33565b10156107435760405162461bcd60e51b815260206004820152601c60248201527f506f6f6c3a20696e73756666696369656e74206c69717569646974790000000060448201526064016103d6565b3360009081526005602090815260408083206001600160a01b038716845290915281208054849290610776908490611b46565b92505081905550818160030160008282546107919190611b46565b909155506107a09050336113fb565b6107e85760405162461bcd60e51b8152602060048201526019602482015278141bdbdb0e881d5b99195c98dbdb1b185d195c985b1a5e9959603a1b60448201526064016103d6565b6107fc6001600160a01b0384163384611417565b6040518281526001600160a01b0384169033907f312a5e5e1079f5dda4e95dbbd0b908b291fd5b992ef22073643ab691572c5b529060200161065f565b6006818154811061084957600080fd5b6000918252602090912001546001600160a01b0316905081565b61086b6113a9565b6001600160a01b03841660009081526003602052604090205460ff166108a35760405162461bcd60e51b81526004016103d690611ac8565b6108b08585858585611451565b6001600160a01b038085169086167f0d7d75e01ab95780d3cd1c8ec0dd6c2ce19e3a20427eec8bf53283b6fb8e95f0856127106108ee600983611b59565b6108f89190611b70565b6040805192835260208301919091520160405180910390a36109276001600080516020611c4983398151915255565b5050505050565b610936611729565b6109406000611756565b565b6000805b600654811015610a895760006006828154811061096557610965611b92565b60009182526020808320909101546001600160a01b038781168452600483526040808520919092168085529252822054909250908190036109a7575050610a77565b6002546040516341976e0960e01b81526001600160a01b03848116600483015260009216906341976e0990602401602060405180830381865afa1580156109f2573d6000803e3d6000fd5b505050506040513d601f19601f82011682018060405250810190610a169190611ba8565b6001600160a01b038416600090815260036020526040902060010154909150610a47670de0b6b3a764000080611b59565b81610a528486611b59565b610a5c9190611b59565b610a669190611b70565b610a709087611b46565b9550505050505b80610a8181611bc1565b915050610946565b50919050565b610a976113a9565b610aa0846113fb565b15610aed5760405162461bcd60e51b815260206004820152601960248201527f506f6f6c3a20626f72726f776572206973206865616c7468790000000000000060448201526064016103d6565b60008111610b0d5760405162461bcd60e51b81526004016103d690611af2565b6001600160a01b0380851660009081526005602090815260408083209387168352929052205480610b705760405162461bcd60e51b815260206004820152600d60248201526c141bdbdb0e881b9bc81919589d609a1b60448201526064016103d6565b6000610b7d600283611b70565b905080831115610bc35760405162461bcd60e51b8152602060048201526011602482015270506f6f6c3a207265706179203e2035302560781b60448201526064016103d6565b610bd86001600160a01b0386163330866113c5565b6001600160a01b03808716600090815260056020908152604080832093891683529290529081208054859290610c0f908490611b33565b90915550506001600160a01b03851660009081526003602081905260408220018054859290610c3f908490611b33565b90915550506002546040516341976e0960e01b81526001600160a01b038781166004830152600092670de0b6b3a7640000929116906341976e0990602401602060405180830381865afa158015610c9a573d6000803e3d6000fd5b505050506040513d601f19601f82011682018060405250810190610cbe9190611ba8565b610cc89086611b59565b610cd29190611b70565b6002546040516341976e0960e01b81526001600160a01b038881166004830152929350600092909116906341976e0990602401602060405180830381865afa158015610d22573d6000803e3d6000fd5b505050506040513d601f19601f82011682018060405250810190610d469190611ba8565b9050600081610d5d670e92596fd629000085611b59565b610d679190611b70565b6001600160a01b03808b166000908152600460209081526040808320938c1683529290522054909150811115610ddf5760405162461bcd60e51b815260206004820152601d60248201527f506f6f6c3a20696e73756666696369656e7420636f6c6c61746572616c00000060448201526064016103d6565b6001600160a01b03808a166000908152600460209081526040808320938b1683529290529081208054839290610e16908490611b33565b90915550506001600160a01b03871660009081526003602052604081206002018054839290610e46908490611b33565b90915550610e6090506001600160a01b0388163383611417565b60408051878152602081018390526001600160a01b03808a1692908c169133917f8246cc71ab01533b5bebc672a636df812f10637ad720797319d5741d5ebb3962910160405180910390a45050505050610ec76001600080516020611c4983398151915255565b50505050565b610ed5611729565b6001600160a01b03831660009081526003602052604090205460ff1615610f355760405162461bcd60e51b8152602060048201526014602482015273141bdbdb0e88185b1c9958591e481b1a5cdd195960621b60448201526064016103d6565b670de0b6b3a7640000821115610f7f5760405162461bcd60e51b815260206004820152600f60248201526e506f6f6c3a204346203e203130302560881b60448201526064016103d6565b670de0b6b3a7640000811115610fc95760405162461bcd60e51b815260206004820152600f60248201526e506f6f6c3a205246203e203130302560881b60448201526064016103d6565b6040805160a08101825260018082526020808301958652600083850181815260608501828152608086019788526001600160a01b03999099168083526003938490529582209451855460ff19169015151785559651848401559551600284015595519582019590955591516004909201919091556006805493840181559091527ff652222313e28459528d920b65115c16c04f3efc82aaedc97be59f3f377c0d3f90910180546001600160a01b0319169091179055565b600061108b826113fb565b92915050565b6000805b600654811015610a89576000600682815481106110b4576110b4611b92565b60009182526020808320909101546001600160a01b038781168452600583526040808520919092168085529252822054909250908190036110f657505061118f565b6002546040516341976e0960e01b81526001600160a01b038481166004830152670de0b6b3a76400009216906341976e0990602401602060405180830381865afa158015611148573d6000803e3d6000fd5b505050506040513d601f19601f8201168201806040525081019061116c9190611ba8565b6111769083611b59565b6111809190611b70565b61118a9085611b46565b935050505b8061119981611bc1565b915050611095565b6111a9611729565b6001600160a01b0381166111d357604051631e4fbdf760e01b8152600060048201526024016103d6565b6111dc81611756565b50565b6111e76113a9565b6001600160a01b0382166000908152600360205260409020805460ff166112205760405162461bcd60e51b81526004016103d690611ac8565b600082116112405760405162461bcd60e51b81526004016103d690611af2565b3360009081526004602090815260408083206001600160a01b03871684529091529020548211156112b35760405162461bcd60e51b815260206004820152601a60248201527f506f6f6c3a20696e73756666696369656e74206465706f73697400000000000060448201526064016103d6565b3360009081526004602090815260408083206001600160a01b0387168452909152812080548492906112e6908490611b33565b92505081905550818160020160008282546113019190611b33565b909155506113109050336113fb565b6113585760405162461bcd60e51b8152602060048201526019602482015278141bdbdb0e881d5b99195c98dbdb1b185d195c985b1a5e9959603a1b60448201526064016103d6565b61136c6001600160a01b0384163384611417565b6040518281526001600160a01b0384169033907f9b1bfa7fa9ee420a16e124f794c35ac9f90472acc99140eb2f6447c714cad8eb9060200161065f565b6113b16117a6565b6002600080516020611c4983398151915255565b6113d38484848460016117d6565b610ec757604051635274afe760e01b81526001600160a01b03851660048201526024016103d6565b600061140682611091565b61140f83610942565b101592915050565b6114248383836001611848565b61144c57604051635274afe760e01b81526001600160a01b03841660048201526024016103d6565b505050565b6040516370a0823160e01b81523060048201526000906001600160a01b038616906370a0823190602401602060405180830381865afa158015611498573d6000803e3d6000fd5b505050506040513d601f19601f820116820180604052508101906114bc9190611ba8565b9050838110156115185760405162461bcd60e51b815260206004820152602160248201527f466c6173684c6f616e3a20696e73756666696369656e74206c697175696469746044820152607960f81b60648201526084016103d6565b6000612710611528600987611b59565b6115329190611b70565b90506115486001600160a01b0387168887611417565b604051631dd0e4ab60e31b81526001600160a01b0388169063ee8725589061157c908990899086908a908a90600401611bda565b6020604051808303816000875af115801561159b573d6000803e3d6000fd5b505050506040513d601f19601f820116820180604052508101906115bf9190611c26565b61160b5760405162461bcd60e51b815260206004820152601a60248201527f466c6173684c6f616e3a2063616c6c6261636b206661696c656400000000000060448201526064016103d6565b6040516370a0823160e01b81523060048201526000906001600160a01b038816906370a0823190602401602060405180830381865afa158015611652573d6000803e3d6000fd5b505050506040513d601f19601f820116820180604052508101906116769190611ba8565b90506116828284611b46565b8110156116c95760405162461bcd60e51b8152602060048201526015602482015274119b185cda131bd85b8e881b9bdd081c995c185a59605a1b60448201526064016103d6565b866001600160a01b0316886001600160a01b03167f9d0d497e678f62d6b162c97b9724a39f45fe674650dcd4a5e88ff6317e63764f8885604051611717929190918252602082015260400190565b60405180910390a35050505050505050565b6000546001600160a01b031633146109405760405163118cdaa760e01b81523360048201526024016103d6565b600080546001600160a01b038381166001600160a01b0319831681178455604051919092169283917f8be0079c531659141344cd1fd0a4f28419497f9722a3daafe3b4186f6b6457e09190a35050565b600080516020611c498339815191525460020361094057604051633ee5aeb560e01b815260040160405180910390fd5b6040516323b872dd60e01b60008181526001600160a01b038781166004528616602452604485905291602083606481808c5af192506001600051148316611836578383151615611829573d6000823e3d81fd5b6000883b113d1516831692505b60405250600060605295945050505050565b60405163a9059cbb60e01b60008181526001600160a01b038616600452602485905291602083604481808b5af1925060016000511483166118a2578383151615611895573d6000823e3d81fd5b6000873b113d1516831692505b60405250949350505050565b80356001600160a01b03811681146118c557600080fd5b919050565b600080604083850312156118dd57600080fd5b6118e6836118ae565b946020939093013593505050565b6000806040838503121561190757600080fd5b611910836118ae565b915061191e602084016118ae565b90509250929050565b6020808252825182820181905260009190848201906040850190845b818110156119685783516001600160a01b031683529284019291840191600101611943565b50909695505050505050565b60006020828403121561198657600080fd5b5035919050565b6000806000806000608086880312156119a557600080fd5b6119ae866118ae565b94506119bc602087016118ae565b935060408601359250606086013567ffffffffffffffff808211156119e057600080fd5b818801915088601f8301126119f457600080fd5b813581811115611a0357600080fd5b896020828501011115611a1557600080fd5b9699959850939650602001949392505050565b600060208284031215611a3a57600080fd5b611a43826118ae565b9392505050565b60008060008060808587031215611a6057600080fd5b611a69856118ae565b9350611a77602086016118ae565b9250611a85604086016118ae565b9396929550929360600135925050565b600080600060608486031215611aaa57600080fd5b611ab3846118ae565b95602085013595506040909401359392505050565b60208082526010908201526f141bdbdb0e881b9bdd081b1a5cdd195960821b604082015260600190565b602080825260119082015270141bdbdb0e881e995c9bc8185b5bdd5b9d607a1b604082015260600190565b634e487b7160e01b600052601160045260246000fd5b8181038181111561108b5761108b611b1d565b8082018082111561108b5761108b611b1d565b808202811582820484141761108b5761108b611b1d565b600082611b8d57634e487b7160e01b600052601260045260246000fd5b500490565b634e487b7160e01b600052603260045260246000fd5b600060208284031215611bba57600080fd5b5051919050565b600060018201611bd357611bd3611b1d565b5060010190565b60018060a01b038616815284602082015283604082015260806060820152816080820152818360a0830137600081830160a090810191909152601f909201601f19160101949350505050565b600060208284031215611c3857600080fd5b81518015158114611a4357600080fdfe9b779b17422d0df92223018b32b4d1fa46e071723d6817e2486d003becc55f00a2646970667358221220698214e3b7f5659b3a9c9759c7ebbbf51cb54b599a33bc2c48fe4ca47d54770764736f6c63430008140033",
  "linkReferences": {},
  "deployedLinkReferences": {}
}