{
  "_format": "hh-sol-artifact-1",
  "contractName": "PriceOracle",
  "sourceName": "contracts/PriceOracle.sol",
  "abi": [
    {
      "inputs": [],
      "stateMutability": "nonpayable",
      "type": "constructor"
    },
    {
      "inputs": [
        {
          "internalType": "address",
          "name": "owner",
          "type": "address"
        }
      ],
      "name": "OwnableInvalidOwner",
      "type": "error"
    },
    {
      "inputs": [
        {
          "internalType": "address",
          "name": "account",
          "type": "address"
        }
      ],
      "name": "OwnableUnauthorizedAccount",
      "type": "error"
    },
    {
      "anonymous": false,
      "inputs": [
        {
          "indexed": true,
          "internalType": "address",
          "name": "previousOwner",
          "type": "address"
        },
        {
          "indexed": true,
          "internalType": "address",
          "name": "newOwner",
          "type": "address"
        }
      ],
      "name": "OwnershipTransferred",
      "type": "event"
    },
    {
      "anonymous": false,
      "inputs": [
        {
          "indexed": true,
          "internalType": "address",
          "name": "token",
          "type": "address"
        },
        {
          "indexed": false,
          "internalType": "uint256",
          "name": "price",
          "type": "uint256"
        }
      ],
      "name": "PriceUpdated",
      "type": "event"
    },
    {
      "inputs": [
        {
          "internalType": "address",
          "name": "token",
          "type": "address"
        }
      ],
      "name": "getPrice",
      "outputs": [
        {
          "internalType": "uint256",
          "name": "",
          "type": "uint256"
        }
      ],
      "stateMutability": "view",
      "type": "function"
    },
    {
      "inputs": [],
      "name": "owner",
      "outputs": [
        {
          "internalType": "address",
          "name": "",
          "type": "address"
        }
      ],
      "stateMutability": "view",
      "type": "function"
    },
    {
      "inputs": [],
      "name": "renounceOwnership",
      "outputs": [],
      "stateMutability": "nonpayable",
      "type": "function"
    },
    {
      "inputs": [
        {
          "internalType": "address",
          "name": "token",
          "type": "address"
        },
        {
          "internalType": "uint256",
          "name": "price",
          "type": "uint256"
        }
      ],
      "name": "setPrice",
      "outputs": [],
      "stateMutability": "nonpayable",
      "type": "function"
    },
    {
      "inputs": [
        {
          "internalType": "address[]",
          "name": "tokens",
          "type": "address[]"
        },
        {
          "internalType": "uint256[]",
          "name": "prices",
          "type": "uint256[]"
        }
      ],
      "name": "setPrices",
      "outputs": [],
      "stateMutability": "nonpayable",
      "type": "function"
    },
    {
      "inputs": [
        {
          "internalType": "address",
          "name": "newOwner",
          "type": "address"
        }
      ],
      "name": "transferOwnership",
      "outputs": [],
      "stateMutability": "nonpayable",
      "type": "function"
    }
  ],
  "bytecode": "0x608060405234801561001057600080fd5b50338061003757604051631e4fbdf760e01b81526000600482015260240160405180910390fd5b61004081610046565b50610096565b600080546001600160a01b038381166001600160a01b0319831681178455604051919092169283917f8be0079c531659141344cd1fd0a4f28419497f9722a3daafe3b4186f6b6457e09190a35050565b610620806100a56000396000f3fe608060405234801561001057600080fd5b50600436106100615760003560e01c8062e4768b1461006657806341976e091461007b5780634352fa9f146100a1578063715018a6146100b45780638da5cb5b146100bc578063f2fde38b146100d7575b600080fd5b6100796100743660046104a9565b6100ea565b005b61008e6100893660046104d3565b61019c565b6040519081526020015b60405180910390f35b6100796100af366004610541565b610200565b6100796103be565b6000546040516001600160a01b039091168152602001610098565b6100796100e53660046104d3565b6103d2565b6100f2610410565b600081116101435760405162461bcd60e51b815260206004820152601960248201527804f7261636c653a207072696365206d757374206265203e203603c1b60448201526064015b60405180910390fd5b6001600160a01b03821660008181526001602052604090819020839055517f0d86730737b142fc160892fa8a0f2db687a92a0e294d1ad70624cf5acef03b84906101909084815260200190565b60405180910390a25050565b6001600160a01b038116600090815260016020526040812054806101fa5760405162461bcd60e51b815260206004820152601560248201527413dc9858db194e881c1c9a58d9481b9bdd081cd95d605a1b604482015260640161013a565b92915050565b610208610410565b8281146102575760405162461bcd60e51b815260206004820152601760248201527f4f7261636c653a206c656e677468206d69736d61746368000000000000000000604482015260640161013a565b60005b838110156103b7576000838383818110610276576102766105ad565b90506020020135116102c65760405162461bcd60e51b815260206004820152601960248201527804f7261636c653a207072696365206d757374206265203e203603c1b604482015260640161013a565b8282828181106102d8576102d86105ad565b90506020020135600160008787858181106102f5576102f56105ad565b905060200201602081019061030a91906104d3565b6001600160a01b03168152602081019190915260400160002055848482818110610336576103366105ad565b905060200201602081019061034b91906104d3565b6001600160a01b03167f0d86730737b142fc160892fa8a0f2db687a92a0e294d1ad70624cf5acef03b84848484818110610387576103876105ad565b9050602002013560405161039d91815260200190565b60405180910390a2806103af816105c3565b91505061025a565b5050505050565b6103c6610410565b6103d0600061043d565b565b6103da610410565b6001600160a01b03811661040457604051631e4fbdf760e01b81526000600482015260240161013a565b61040d8161043d565b50565b6000546001600160a01b031633146103d05760405163118cdaa760e01b815233600482015260240161013a565b600080546001600160a01b038381166001600160a01b0319831681178455604051919092169283917f8be0079c531659141344cd1fd0a4f28419497f9722a3daafe3b4186f6b6457e09190a35050565b80356001600160a01b03811681146104a457600080fd5b919050565b600080604083850312156104bc57600080fd5b6104c58361048d565b946020939093013593505050565b6000602082840312156104e557600080fd5b6104ee8261048d565b9392505050565b60008083601f84011261050757600080fd5b50813567ffffffffffffffff81111561051f57600080fd5b6020830191508360208260051b850101111561053a57600080fd5b9250929050565b6000806000806040858703121561055757600080fd5b843567ffffffffffffffff8082111561056f57600080fd5b61057b888389016104f5565b9096509450602087013591508082111561059457600080fd5b506105a1878288016104f5565b95989497509550505050565b634e487b7160e01b600052603260045260246000fd5b6000600182016105e357634e487b7160e01b600052601160045260246000fd5b506001019056fea26469706673582212201bf45fe1720af2048840cd7199e8395d68b30d19cab5e2992dccfe1ed2752e8a64736f6c63430008140033",
  "linkReferences": {},
  "deployedLinkReferences": {}
}